:020000040000FA
:060000000A128A11F82F1C
:100E700083120313881B3D2F3E2F432F0A128A1122
:100E8000B7270A128A1108000A128A1172270A1259
:100E90008A110A128A1159270A128A110A128A1112
:100EA00038270A128A11F601F701492F0A128A110E
:100EB00000286B2F83120313881F5F2F602F632F6F
:100EC000F601F7016B2F0130F6000030F70001301A
:100ED000FA000030FB00760877040319702F712F99
:100EE0005A2F0800831603178801890183160313FC
:100EF000850186018701E030880083120313850194
:100F000086018701851308100812F901F801F6011E
:100F1000F7010130FA000030FB000800F201F30194
:100F2000AC2FF401F5010130F4070318F50A003085
:100F3000F5077508803AFF0080307F02031DA22F5D
:100F4000FF307402031CA52FA62F932F0130F20748
:100F50000318F30A0030F30771087302031DB22F60
:100F600070087202031CB52FB62F912F0800831250
:100F70000313881508158814B6308700F430F00084
:100F80000130F1000A128A118E270A128A11831287
:100F90000313881108158814B3308700F430F0006B
:100FA0000130F1000A128A118E270A128A11831267
:100FB000031388110811881414308700F430F000EE
:100FC0000130F1000A128A118E270A128A11831247
:100FD000031388110811881077308700F430F0006F
:100FE0000130F1000A128A118E270A128A110800B4
:100FF000F601F701F801F90183010A128A11442F61
:04400E00F5E3FFFFD8
:00000001FF
