:020000040000FA
:060000000A128A11F62F1E
:100C4E00831203138601F001F1010816B3308700F9
:100C5E000800831203138501F001F101081404301A
:100C6E00870008000A128A1147260A128A110A12F0
:100C7E008A1191260A128A113E2E0A128A11002812
:100C8E0083160317880189018316031385018601D4
:100C9E008701E030880083120313850186018701E6
:100CAE00F201F30108006C2E83120313881B602ED1
:100CBE00612E662E0130F2000030F3006C2EF20130
:100CCE00F3010130F0000030F100720373040319D8
:100CDE00712E722E5B2E08008A2E83120313081BB0
:100CEE00792E7A2E802E0A128A117C270A128A11E8
:100CFE008A2E881A832E842E902E0A128A11B927D4
:100D0E000A128A11732E7003710403198F2E902EFE
:100D1E00742E08009F2E83120313881F972E982E71
:100D2E009B2EF201F3019F2E0130F2000030F300F2
:100D3E00720873040319A42EA52E922E0A128A117C
:100D4E005A260A128A110A128A1144270A128A1185
:100D5E000A128A1173260A128A110800F801F90183
:100D6E00D32EFA01FB010130FA070318FB0A0030FB
:100D7E00FB077B08803AFF0080307F02031DC92EDF
:100D8E00FF307A02031CCC2ECD2EBA2E0130F8077E
:100D9E000318F90A0030F90777087902031DD92ED6
:100DAE0076087802031CDC2EDD2EB82E0800831286
:100DBE000313881EE32EE42E102F7408031DE82E55
:100DCE00E92EF02EF401F40A0608F6007608F40077
:100DDE00102F74080319F42EF52E042F8030740290
:100DEE000318FA2EFB2E042F7408F6007607F70070
:100DFE007708F40074088600102F80307406031DE7
:100E0E00092F0A2F102F0A128A1127260A128A1169
:100E1E00102F080083120313081F162F172F432FAE
:100E2E007508031D1B2F1C2F232FF501F50A05082E
:100E3E00F6007608F500432F75080319272F282F83
:100E4E00372F8030750203182D2F2E2F372F750850
:100E5E00F6007607F7007708F50075088500432F32
:100E6E0080307506031D3C2F3D2F432F0A128A1129
:100E7E0030260A128A11432F080083120313881595
:100E8E0008158814B6308700F430F6000130F700EC
:100E9E000A128A11B5260A128A11831203138811B7
:100EAE0008158814B3308700F430F6000130F700CF
:100EBE000A128A11B5260A128A1183120313881197
:100ECE000811881404308700F430F6000130F70062
:100EDE000A128A11B5260A128A1183120313881177
:100EEE000811881077308700080083120313081F3B
:100EFE00812F822FAF2F7508031D862F872F8E2FE0
:100F0E00F501F50A0508F8007808F500B82F750800
:100F1E000319922F932FA22F803075020318982F4A
:100F2E00992FA22F7508F8007807F9007908F500B7
:100F3E0075088500B82F80307506031DA72FA82FC2
:100F4E00AE2F0A128A1130260A128A11B82FB82F24
:100F5E00881AB22FB32FB82F0A128A11DE260A1260
:100F6E008A11080083120313881EBE2FBF2FEC2F89
:100F7E007408031DC32FC42FCB2FF401F40A0608E7
:100F8E00F8007808F400F52F74080319CF2FD02F2E
:100F9E00DF2F803074020318D52FD62FDF2F740861
:100FAE00F8007807F9007908F40074088600F52F28
:100FBE0080307406031DE42FE52FEB2F0A128A11E1
:100FCE0027260A128A11F52FF52F081BEF2FF02F67
:100FDE00F52F0A128A1111270A128A110800F00140
:100FEE00F101F201F301F401F50183010A128A11F4
:020FFE00392E8A
:04400E00F1E0FFFFDF
:00000001FF
